0001CARTORIO DISTRIBUIDOR                   07102020SDPAGDRTA0000000000000000000000      0000000000                                                                                                                                                                                                                                                                                                                                                                                                                                                                                                                 0001
174807530624104    ASSOC DE ENSINO JAGUARIA VA                  ASSOC DE ENSINO JAGUARIA VA                  05379217000178R. PORTO VELHO, SN                           84200000JAGUARIAIVA         PR201003510      DSI90000030   07022020011020200010000000008250000000000082500JAGUARIAIVA         MN1JAIR FRANCISCO TORRES APOLONIO               00200004296514903           R OLGA KOJO  953                             84200000JAGUARIAIVA         PR01      3106 071020200000000000D00000000                      0000000000000000000000000000000000000000000000000           0000000000                   0002
1535               COPEL DISTRIBUICAO S.A.                      COPEL DISTRIBUICAO S.A.                      04368898000106R JOSE IZIDORO BIAZETTO, 158 - BLOCO C       81200240CURITIBA            PR20198656349752 DMI9865634975218012020000000000010000000001484700000000014847JAGUARIAIVA          N1ALAF FELIPE CUSTODIO DE ALMEIDA              00200009717279969           R DOS TROPEIROS 249 -                        84200000JAGUARIAIVA         PR01      3105 071020200000000000D00000000  PEDRINHA            0000000000000000000000000000000000000000000000000           0000000000                   0003
1237003509200005193DRUGOVICH PECAS                              DRUGOVICH PECAS                              79153789000170AV COLOMBO                       900         87045020MARINGA             PR009909566064791DMI0001494289 26082020220920200010000000023250000000000232500JAGUARIAIVA         MN1NILTON DE ALMEIDA   TRANSPORTES              0011243516600011000000000000ROD PR 151,S/N                               84200000JAGUARIAIVA         PR01      3104 071020200000000000000000000                      0000000000000000000000000000000000000000000000000           0000000000                   0004
1237003509200005193DRUGOVICH PECAS                              DRUGOVICH PECAS                              79153789000170AV COLOMBO                       900         87045020MARINGA             PR009909566057876DMI0001475342 16062020080920200010000000039094200000000390942JAGUARIAIVA         MN1NILTON DE ALMEIDA   TRANSPORTES              0011243516600011000000000000ROD PR 151,S/N                               84200000JAGUARIAIVA         PR01      3103 071020200000000000000000000                      0000000000000000000000000000000000000000000000000           0000000000                   0005
1237000142200587079B D VEST CONFECCOES                          B D VEST CONFECCOES                          02656196000100AV DAS FABRICAS                         282  87207022CIANORTE            PR009024500000235DMI575469/001 31082020300920200010000000001945000000000019450JAGUARIAIVA         MN1FABIANO DO VALLE ASSIS                       0011336400900012300000000000RUA MARCIO ARAUJO MOTTA 35 SL 02 CENTRO      84200000JAGUARIAIVA         PR01      3102 071020200000000000000000000                      0000000000000000000000000000000000000000000000000           0000000000                   0006
1033YK2222007381166TULIO CASSAROTTI JUNIOR BOLSAS               TULIO CASSAROTTI JUNIOR BOLSAS               01245509000167R PEDRO RIPOLI 2245                          09410020RIBEIRAO PIRES      SPYK0000000461873DMI0004958803 26052020220920200010000000006263500000000062635JAGUARIAIVA         MN1ESTELA CRISTINA TEIXEIRA JAGUARIAIVA - M     0011514498100011800000000000AV ANTONIO CUNHA, 261                        84200000JAGUARIAIVA         PR01      3101 071020200000000000D00000000                      0000000000000000000000000000000000000000000000000           0000000000                   0007
1033YK1056002170868AREZZO INDUSTRIA E COMERCIO S.A              AREZZO INDUSTRIA E COMERCIO S.A              16590234000176R FERNANDES TOURINHO 147 SALA 402            30112000BELO HORIZONTE      MGYK0000034183620DMI0033171220031072020290920200010000000001048000000000010480JAGUARIAIVA         MN1ESTELA CRISTINA TEIXEIRA                     0011514498100011800000000000AV. ANTONIO CUNHA 261                        84200000JAGUARIAIVA         PR01      3100 071020200000000000D00000000                      0000000000000000000000000000000000000000000000000           0000000000                   0008
1001001762792300012S.R.A. VOLPATO COMERCIO DE PECAS - EIRELI - ES.R.A. VOLPATO COMERCIO DE PECAS - EIRELI - E02616320000104AV. MASSUO YOSHIY 4750 BLOCO B               86990000MARIALVA            PR106100000101556DMIA2524-3/3  27062020270920200010000000016619400000000166194JAGUARIAIVA         MN1M.R.SIEIRO FILLVOCK-BICICLETAS-ME            0011964548300010000000000000AV CONDE FRANCISCO MATARAZZO, 333            84200000JAGUARIAIVA         PR01      3099 071020200000000000D00000000  CENTRO              0000000000000000000000000000000000000000000000000           0000000000                   0009
9001CARTORIO DISTRIBUIDOR                   0710202000000000000000000000000                                                                                                                                                                                                                                                                                                                                                                                                                                                                                                                                         0010